:0200000000817D
:0200010000CF2E
:0200020000926A
:02000300008675
:0200040000CC2E
:0200050000A455
:0200060000A058
:02000700008F68
:02000800008076
:02000900008C69
:02000A0027814C
:02000B0027CFFD
:02000C00279239
:02000D00278644
:02000E0027CCFD
:02000F0027A424
:0200100027A027
:02001100278F37
:02001200278045
:02001300278C38
:020014000901E0
:02001500094F91
:020016000912CD
:020017000906D8
:02001800094C91
:020019000924B8
:02001A000920BB
:02001B00090FCB
:02001C000900D9
:02001D00090CCC
:02001E000301DC
:02001F00034F8D
:020020000312C9
:020021000306D4
:02002200034C8D
:020023000324B4
:020024000320B7
:02002500030FC7
:020026000300D5
:02002700030CC8
:020028002601AF
:02002900264F60
:02002A0026129C
:02002B002606A7
:02002C00264C60
:02002D00262487
:02002E0026208A
:02002F00260F9A
:020030002600A8
:02003100260C9B
:020032001201B9
:02003300124F6A
:020034001212A6
:020035001206B1
:02003600124C6A
:02003700122491
:02003800122094
:02003900120FA4
:02003A001200B2
:02003B00120CA5
:02003C001001B1
:02003D00104F62
:02003E0010129E
:02003F001006A9
:00000001FF
